:020000040800F2
:1000000000280020050F0008950E00089B0E000830
:10001000A10E0008A70E0008AD0E000800000000A9
:10002000000000000000000000000000B30E000807
:10003000BF0E000800000000CB0E0008D70E00081D
:100040004D0F00084D0F00084D0F00084D0F000820
:100050004D0F00084D0F00084D0F00084D0F000810
:100060004D0F00084D0F00084D0F00084D0F000800
:100070004D0F00084D0F00084D0F00084D0F0008F0
:100080004D0F00084D0F00084D0F00084D0F0008E0
:100090004D0F00084D0F00084D0F00084D0F0008D0
:1000A0004D0F00084D0F00084D0F00084D0F0008C0
:1000B000E50E00084D0F0008000000004D0F00087D
:1000C0004D0F000800000000000000004D0F000868
:1000D000000000004D0F00084D0F00080000000058
:1000E0004D0F00084D0F00084D0F000800000000E4
:1000F0000000000000000000000000000000000000
:0C01000000000000000000005FF808F1A3
:10010C0010B5054C237833B9044B13B10448AFF345
:10011C0000800123237010BD60000020000000004F
:10012C00A425000808B5034B1BB103490348AFF3E2
:10013C00008008BD0000000064000020A425000819
:10014C0080B582B000AF78607B68092B00F28081AB
:10015C0001A252F823F000BF8D010008D501000860
:10016C001D02000865020008AD020008F502000837
:10017C003D03000885030008CD03000815040008A2
:10018C0000220121B44801F0DEF900220221B2481C
:10019C0001F0D9F900220421AF4801F0D4F9002272
:1001AC000821AD4801F0CFF900221021AA4801F036
:1001BC00CAF900222021A84801F0C5F901224021EA
:1001CC00A54801F0C0F943E101220121A24801F048
:1001DC00BAF900220221A04801F0B5F9002204214D
:1001EC009D4801F0B0F9012208219B4801F0ABF9C0
:1001FC0001221021984801F0A6F9012220219648ED
:10020C0001F0A1F901224021934801F09CF91FE172
:10021C0000220121904801F096F9002202218E481B
:10022C0001F091F9012204218B4801F08CF9002294
:10023C000821894801F087F900221021864801F035
:10024C0082F901222021844801F07DF9002240210D
:10025C00814801F078F9FBE0002201217E4801F091
:10026C0072F9002202217C4801F06DF90022042170
:10027C00794801F068F900220821774801F063F908
:10028C0001221021744801F05EF9012220217248EC
:10029C0001F059F9002240216F4801F054F9D7E0E0
:1002AC00012201216C4801F04EF9002202216A481A
:1002BC0001F049F900220421674801F044F90122B8
:1002CC000821654801F03FF901221021624801F034
:1002DC003AF900222021604801F035F90022402132
:1002EC005D4801F030F9B3E0002201215A4801F0D9
:1002FC002AF901220221584801F025F90022042193
:10030C00554801F020F900220821534801F01BF94F
:10031C0001221021504801F016F9002220214E48EC
:10032C0001F011F9002240214B4801F00CF98FE04B
:10033C0000220121484801F006F901220221464819
:10034C0001F001F900220421434801F0FCF80022DD
:10035C000821414801F0F7F8002210213E4801F035
:10036C00F2F8002220213C4801F0EDF80022402157
:10037C00394801F0E8F86BE000220121364801F021
:10038C00E2F800220221344801F0DDF800220421B9
:10039C00314801F0D8F8012208212F4801F0D3F898
:1003AC00012210212C4801F0CEF8012220212A48EC
:1003BC0001F0C9F801224021274801F0C4F847E0B8
:1003CC0000220121244801F0BEF80022022122481B
:1003DC0001F0B9F8002204211F4801F0B4F8002202
:1003EC0008211D4801F0AFF8002210211A4801F035
:1003FC00AAF800222021184801F0A5F8002240217B
:10040C00154801F0A0F823E000220121124801F068
:10041C009AF800220221104801F095F800220421DC
:10042C000D4801F090F8002208210B4801F08BF8E0
:10043C0001221021084801F086F8002220210648EC
:10044C0001F081F800224021034801F07CF800BF44
:10045C0000BF0837BD4680BD000C014080B483B09E
:10046C0000AF7860094A7B6852F82330012B06D123
:10047C00064A7B68002142F82310012300E0002388
:10048C0018460C37BD4680BC704700BF8C0000205E
:10049C0080B483B000AF7860044A7B6852F8233094
:1004AC0018460C37BD4680BC704700BF7C0000204E
:1004BC0080B582B000AF00237B608AE0494A7B683C
:1004CC0052F8232048497B6841F82320474A7B682F
:1004DC0052F8232043497B6841F82320444A7B6827
:1004EC0013441B789BB21946424801F015F8034699
:1004FC0019463E4A7B6842F823103A4A7B6852F808
:10050C00232039497B6851F823309A425ED1354A11
:10051C007B6852F8232035497B6851F823309A4286
:10052C0054D1324A7B6852F8232033497B6851F806
:10053C0023309A422BD02D4A7B6852F823202E4927
:10054C007B6841F823202C4A7B6852F82330002B1F
:10055C0011D12A4A7B684FF4967142F82310284A2D
:10056C007B6852F82330012B30D0264A7B6801215E
:10057C0042F823102AE0214A7B684FF4967142F826
:10058C0023101F4A7B68002142F823101EE01B4AEF
:10059C007B6852F823305A1E18497B6841F8232097
:1005AC00164A7B6852F82330002B0FD1124A7B6815
:1005BC00012142F823100D4A7B6852F82330002B9E
:1005CC0004D10F4A7B68012142F823107B68013368
:1005DC007B607B68032B7FF771AF00BF00BF0837D0
:1005EC00BD4680BD1000002000000020200000202F
:1005FC005000002000080140300000204000002086
:10060C007C0000208C00002080B500AF934B1B6851
:10061C00012B07D12021924800F0ADFF4FF47A70E6
:10062C0000F070FB8F4B1B68032B00F2438201A27E
:10063C0052F823F05106000885080008110700083D
:10064C00D3090008884B1B68012B06D10020FFF74B
:10065C0077FD4FF47A7000F071FB0020FFF7FEFE7F
:10066C000346012B09D1814B00221A600020FFF7B1
:10067C0067FD4FF47A7000F061FB0120FFF7EEFE8E
:10068C000346012B1AD1774B01221A60774B1B685A
:10069C000133764A1360754B1B680A2B02D1734BDE
:1006AC0000221A60714B1B681846FFF749FD704B0E
:1006BC0000221A604FF47A7000F040FB0220FFF722
:1006CC00CDFE0346012B40F0F781664B02221A60E7
:1006DC00664B1B68013B654A1360644B1B68B3F1A6
:1006EC00FF3F02D1614B09221A60604B1B68184610
:1006FC00FFF726FD5E4B00221A604FF47A7000F073
:10070C001DFBD9E1584B1B68012B29D1584B1B6899
:10071C000A2B02D1534B03221A60554B1B68013331
:10072C00534A1360534B9B68C82B03DC514B9B689B
:10073C00632B11DC4D4B1B68013B4C4A13604B4B3C
:10074C001B68B3F1FF3F02D1484B09221A60474B9B
:10075C001B681846FFF7F4FC4FF47A7000F0EEFAC1
:10076C000020FFF77BFE0346012B0ED13F4B0022EE
:10077C001A603F4B00221A603C4B1B681846FFF76F
:10078C00DFFC4FF47A7000F0D9FA0220FFF766FE16
:10079C000346012B1BD1334B02221A60334B1B68CF
:1007AC00013B324A1360314B1B68B3F1FF3F02D15E
:1007BC002E4B09221A602E4B00221A602B4B1B6801
:1007CC001846FFF7BDFC4FF47A7000F0B7FA022020
:1007DC00FFF75EFE0346012B1CD1234B1B68012B3C
:1007EC0018D1224B1B68013B204A13601F4B1B681E
:1007FC00B3F1FF3F02D11D4B09221A601C4B0022A2
:10080C001A601A4B1B681846FFF79AFC4FF47A7063
:10081C0000F094FA0120FFF721FE0346012B40F073
:10082C004D81104B01221A60104B1B6801330F4A8B
:10083C0013600E4B1B680A2B02D10C4B00221A6062
:10084C000B4B00221A60094B1B681846FFF778FC0B
:10085C004FF47A7000F072FA30E100BFAC00002067
:10086C00000801409C000020B0000020A0000020E7
:10087C00A400002040000020944B1B68012B28D1C1
:10088C00934B1B680A2B02D1924B03221A60904B9C
:10089C001B6801338E4A13608F4B5B68C82B03DCDB
:1008AC008D4B5B68632B10DC8C4B1B6801338B4AC4
:1008BC0013608A4B1B680A2B02D1884B00221A60EA
:1008CC00864B1B681846FFF73BFC4FF47A7000F020
:1008DC0035FA0020FFF7C2FD0346012B0CD17F4BEC
:1008EC0000221A607A4B00221A600020FFF728FCC5
:1008FC004FF47A7000F022FA0120FFF7AFFD0346A7
:10090C00012B1AD1734B01221A60744B1B680133F3
:10091C00724A13606E4B00221A60704B1B680A2BD4
:10092C0002D16E4B00221A606C4B1B681846FFF705
:10093C0007FC4FF47A7000F001FA0120FFF7A8FDD4
:10094C000346012B1BD1614B1B68012B17D1634B49
:10095C001B680133614A13605D4B00221A605F4BC8
:10096C001B680A2B02D15D4B00221A605B4B1B6883
:10097C001846FFF7E5FB4FF47A7000F0DFF9022020
:10098C00FFF76CFD0346012B40F09A80514B02227D
:10099C001A60524B1B68013B504A13604C4B0022AF
:1009AC001A604E4B1B68B3F1FF3F02D14B4B09222F
:1009BC001A604A4B1B681846FFF7C2FB4FF47A705B
:1009CC0000F0BCF97CE0414B1B68012B1CD1434B64
:1009DC001B68002B0DDD414B1B68013B3F4A13602C
:1009EC003E4B1B681846FFF7ABFB4FF47A7000F0D8
:1009FC00A5F93A4B1B68002B06D1364B00221A6026
:100A0C004FF47A7000F09AF90020FFF727FD0346A7
:100A1C00012B0BD1314B00221A60304B1B6818464E
:100A2C00FFF78EFB4FF47A7000F088F90120FFF786
:100A3C0015FD0346012B1AD1264B01221A60274BB8
:100A4C001B680133254A1360244B1B680A2B02D107
:100A5C00224B00221A60214B1B681846FFF770FBD3
:100A6C001B4B00221A604FF47A7000F067F90220D9
:100A7C00FFF7F4FC0346012B24D1164B02221A601B
:100A8C00164B1B68013B154A1360144B1B68B3F1E2
:100A9C00FF3F02D1114B09221A60104B1B681846FC
:100AAC00FFF74EFB0A4B00221A604FF47A7000F0ED
:100ABC0045F907E000BF06E000BF04E000BF02E01C
:100ACC0000BF00E000BF00BF80BD00BFB000002031
:100ADC00A40000209C00002040000020A00000206A
:100AEC0080B500AF00F02EFA00F014F800F09AF880
:100AFC0000F04CF8064801F08FF94FF47A7000F0D2
:100B0C001DF94FF47A7000F0FDF8FFF77DFDFCE75E
:100B1C00B800002080B590B000AF07F11803282270
:100B2C000021184601F030FD3B1D00221A605A606E
:100B3C009A60DA601A610223BB610123BB62102345
:100B4C00FB6200237B6307F11803184600F02CFDB1
:100B5C000346002B01D000F0CFF80F237B6000235D
:100B6C00BB600023FB6000233B6100237B613B1DCA
:100B7C000021184600F098FF0346002B01D000F02E
:100B8C00BBF800BF4037BD4680BD000080B586B0C5
:100B9C0000AF07F1080300221A605A609A60DA600D
:100BAC003B4600221A605A601D4B4FF080421A607F
:100BBC001B4B41F63F725A60194B00229A60184B3E
:100BCC000A22DA60164B00221A61154B00229A6138
:100BDC00134801F0D1F80346002B01D000F08CF83B
:100BEC004FF48053BB6007F1080319460C4801F021
:100BFC0067FA0346002B01D000F07EF800233B601F
:100C0C0000237B603B461946054801F02FFC034648
:100C1C00002B01D000F070F800BF1837BD4680BD26
:100C2C00B800002080B586B000AF07F108030022A1
:100C3C001A605A609A60DA60264B9B69254A43F029
:100C4C0004039361234B9B6903F004037B607B6873
:100C5C00204B9B691F4A43F0080393611D4B9B6912
:100C6C0003F008033B603B68002220211A4800F087
:100C7C006AFC00227F21194800F065FC0E23BB6042
:100C8C000023FB6001233B6107F10803194612485E
:100C9C0000F0C8FA2023BB600123FB6000233B61FA
:100CAC0002237B6107F1080319460B4800F0BAFADE
:100CBC007F23BB600123FB6000233B6102237B612C
:100CCC0007F108031946054800F0ACFA00BF1837C5
:100CDC00BD4680BD0010024000080140000C0140E0
:100CEC0080B582B000AF786000F044F8FFF7E0FB0D
:100CFC0000BF0837BD4680BD80B400AF72B600BFE0
:100D0C00FEE7000080B483B000AF78607B68084ACF
:100D1C0082FB03129210DB17D31A064A1360064BA0
:100D2C0000221A6000BF0C37BD4680BC704700BF64
:100D3C0067666666A8000020AC00002080B483B013
:100D4C0000AF78607B68084A82FB03129210DB17B5
:100D5C00D31A064A1360064B00221A6000BF0C37E8
:100D6C00BD4680BC704700BF67666666B400002055
:100D7C00B000002080B400AF144B1B68002B0EDDBC
:100D8C00124B1B68013B114A1360104B1B68002B64
:100D9C0005D10E4B00221A600D4B01221A600D4B2F
:100DAC001B68002B0EDD0B4B1B68013B094A1360C3
:100DBC00084B1B68002B05D1064B00221A60064B12
:100DCC0001221A6000BFBD4680BC7047A8000020FD
:100DDC00AC000020B4000020B000002080B485B02E
:100DEC0000AF154B9B69144A43F001039361124BFE
:100DFC009B6903F00103BB60BB680F4BDB690E4AB8
:100E0C0043F08053D3610C4BDB6903F080537B6060
:100E1C007B680A4B5B68FB60FB6823F0E063FB605C
:100E2C00FB6843F08063FB60044AFB68536000BFBF
:100E3C001437BD4680BC70470010024000000140D2
:100E4C0080B584B000AF78607B681B68B3F1804FCD
:100E5C0013D10C4BDB690B4A43F00103D361094BF3
:100E6C00DB6903F00103FB60FB68002200211C20FE
:100E7C0000F0A1F91C2000F0BAF900BF1037BD46F4
:100E8C0080BD00BF0010024080B400AFFEE780B40C
:100E9C0000AFFEE780B400AFFEE780B400AFFEE722
:100EAC0080B400AFFEE780B400AF00BFBD4680BC8D
:100EBC00704780B400AF00BFBD4680BC704780B4A3
:100ECC0000AF00BFBD4680BC704780B500AF00F0DE
:100EDC007FF800BF80BD000080B500AF024800F075
:100EEC00E7FF00BF80BD00BFB800002080B400AF9A
:100EFC0000BFBD4680BC70470C480D490D4A00230D
:100F0C0002E0D458C4500433C4188C42F9D30A4AB2
:100F1C000A4C002301E013600432A242FBD3FFF71A
:100F2C00E5FF01F00DFBFFF7DBFD70470000002033
:100F3C0060000020E425000860000020040100206F
:100F4C00FEE7000080B500AF084B1B68074A43F072
:100F5C0010031360032000F023F90F2000F008F8B1
:100F6C00FFF73CFF0023184680BD00BF0020024065
:100F7C0080B582B000AF7860124B1A68124B1B78A8
:100F8C0019464FF47A73B3FBF1F3B2FBF3F3184643
:100F9C0000F03BF90346002B01D001230EE07B68E7
:100FAC000F2B0AD8002279684FF0FF3000F003F9BC
:100FBC00064A7B681360002300E0012318460837BB
:100FCC00BD4680BD540000205C000020580000206D
:100FDC0080B400AF054B1B781A46054B1B681344B5
:100FEC00034A136000BFBD4680BC70475C00002004
:100FFC000001002080B400AF024B1B681846BD46B0
:10100C0080BC70470001002080B485B000AF7860D0
:10101C007B6803F00703FB600C4BDB68BB60BA68B2
:10102C004FF6FF031340BB60FB681A02BB68134307
:10103C0043F0BF6343F40033BB60044ABB68D36026
:10104C0000BF1437BD4680BC704700BF00ED00E008
:10105C0080B400AF044BDB681B0A03F0070318468F
:10106C00BD4680BC704700BF00ED00E080B483B08B
:10107C0000AF0346FB7197F90730002B0BDBFB79B4
:10108C0003F01F02064997F907305B09012000FAAB
:10109C0002F241F8232000BF0C37BD4680BC7047DC
:1010AC0000E100E080B483B000AF03463960FB710F
:1010BC0097F90730002B0ADB3B68DAB20C4997F939
:1010CC0007301201D2B20B4483F800230AE03B68CC
:1010DC00DAB20849FB7903F00F03043B1201D2B2D8
:1010EC000B441A7600BF0C37BD4680BC704700BF5E
:1010FC0000E100E000ED00E080B489B000AFF860E2
:10110C00B9607A60FB6803F00703FB61FB69C3F10C
:10111C000703042B28BF0423BB61FB690433062B94
:10112C0002D9FB69033B00E000237B614FF0FF32E7
:10113C00BB6902FA03F3DA43BB681A407B699A4035
:10114C004FF0FF317B6901FA03F3D9437B680B4005
:10115C00134318462437BD4680BC704780B582B017
:10116C0000AF78607B68013BB3F1807F01D3012332
:10117C000FE00A4A7B68013B53600F214FF0FF30B0
:10118C00FFF790FF054B00229A60044B07221A6070
:10119C00002318460837BD4680BD00BF10E000E0B4
:1011AC0080B582B000AF78607868FFF72DFF00BF84
:1011BC000837BD4680BD80B586B000AF0346B96028
:1011CC007A60FB7300237B61FFF742FF78617A68DA
:1011DC00B9687869FFF790FF024697F90F3011460E
:1011EC001846FFF75FFF00BF1837BD4680BD80B5BE
:1011FC0082B000AF0346FB7197F907301846FFF732
:10120C0035FF00BF0837BD4680BD80B582B000AF4A
:10121C0078607868FFF7A2FF034618460837BD468A
:10122C0080BD000080B48BB000AF786039600023C3
:10123C007B6200233B6248E101227B6A02FA03F3E2
:10124C00FB613B681B68FA691340BB61BA69FB69B7
:10125C009A4240F037813B685B68A34A93425ED068
:10126C00A14A934275D8A14A934258D09F4A9342BF
:10127C006FD89F4A934252D09D4A934269D89D4A57
:10128C0093424CD09B4A934263D89B4A934246D09C
:10129C00994A93425DD8122B2AD8122B59D801A205
:1012AC0052F823F02B13000805130008171300083D
:1012BC00591300085F1300085F1300085F13000840
:1012CC005F1300085F1300085F1300085F1300082A
:1012DC005F1300085F1300085F1300085F1300081A
:1012EC005F1300085F1300080D130008211300089A
:1012FC00824A934213D02CE03B68DB683B6229E0C6
:10130C003B68DB6804333B6224E03B68DB680833F2
:10131C003B621FE03B68DB680C333B621AE03B68C6
:10132C009B68002B02D104233B6213E03B689B6853
:10133C00012B05D108233B627B68FA691A6109E02D
:10134C0008233B627B68FA695A6103E000233B6225
:10135C0000E000BFBB69FF2B01D87B6801E07B6814
:10136C0004337B61BB69FF2B02D87B6A9B0002E0D4
:10137C007B6A083B9B003B617B691A680F213B69C8
:10138C0001FA03F3DB431A40396A3B6901FA03F3B0
:10139C001A437B691A603B685B6803F08053002B2F
:1013AC0000F09080564B9B69554A43F001039361C2
:1013BC00534B9B6903F00103BB60BB68514A7B6ACA
:1013CC009B08023352F82330FB607B6A03F0030363
:1013DC009B000F2202FA03F3DB43FA681340FB6015
:1013EC007B68494A93420DD07B68484A934207D0A8
:1013FC007B68474A934201D1022304E0032302E0B5
:10140C00012300E000237A6A02F003029200934069
:10141C00FA681343FB603B497B6A9B080233FA680A
:10142C0041F823203B685B6803F48033002B06D023
:10143C00384B1A683749BB6913430B6006E0354BD0
:10144C001A68BB69DB43334913400B603B685B682C
:10145C0003F40033002B06D02E4B5A682D49BB6980
:10146C0013434B6006E02B4B5A68BB69DB4329499D
:10147C0013404B603B685B6803F48013002B06D071
:10148C00244B9A682349BB6913438B6006E0214BBC
:10149C009A68BB69DB431F4913408B603B685B68F0
:1014AC0003F40013002B06D01A4BDA681949BB69F8
:1014BC001343CB6006E0174BDA68BB69DB43154975
:1014CC001340CB607B6A01337B623B681A687B6A92
:1014DC0022FA03F3002B7FF4AFAE00BF00BF2C3712
:1014EC00BD4680BC704700BF0000321000003110B8
:1014FC00000022100000211000001210000011103A
:10150C00001002400000014000080140000C0140A6
:10151C00001001400004014080B485B000AF786039
:10152C000B467B807B689A687B881340002B02D02B
:10153C000123FB7301E00023FB73FB7B184614377C
:10154C00BD4680BC704780B483B000AF78600B465A
:10155C007B8013467B707B78002B03D07A887B686A
:10156C001A6103E07B881A047B681A6100BF0C3790
:10157C00BD4680BC704780B485B000AF78600B4628
:10158C007B807B68DB68FB607A88FB6813401A04FD
:10159C00FB68D9437B880B401A437B681A6100BFF8
:1015AC001437BD4680BC704780B586B000AF7860FC
:1015BC007B68002B01D101236CE27B681B6803F074
:1015CC000103002B00F08780924B5B6803F00C0347
:1015DC00042B0CD08F4B5B6803F00C03082B12D13F
:1015EC008C4B5B6803F48033B3F5803F0BD1894B94
:1015FC001B6803F40033002B6CD07B685B68002BFA
:10160C0068D1012346E27B685B68B3F5803F06D165
:10161C00804B1B687F4A43F4803313602EE07B6859
:10162C005B68002B0CD17B4B1B687A4A23F480330C
:10163C001360784B1B68774A23F4802313601DE0FA
:10164C007B685B68B3F5A02F0CD1724B1B68714A99
:10165C0043F4802313606F4B1B686E4A43F4803352
:10166C0013600BE06B4B1B686A4A23F480331360E6
:10167C00684B1B68674A23F4802313607B685B68A4
:10168C00002B13D0FFF7B6FC386108E0FFF7B2FC73
:10169C0002463B69D31A642B01D90323FAE15D4B53
:1016AC001B6803F40033002BF0D014E0FFF7A2FC0E
:1016BC00386108E0FFF79EFC02463B69D31A642BA5
:1016CC0001D90323E6E1534B1B6803F40033002BD1
:1016DC00F0D100E000BF7B681B6803F00203002B15
:1016EC0063D04C4B5B6803F00C03002B0BD0494BC5
:1016FC005B6803F00C03082B1CD1464B5B6803F4AE
:10170C008033002B16D1434B1B6803F00203002BD4
:10171C0005D07B681B69012B01D00123BAE13D4B3D
:10172C001B6823F0F8027B685B69DB0039491343C3
:10173C000B603AE07B681B69002B20D0364B0122F2
:10174C001A60FFF757FC386108E0FFF753FC0246BC
:10175C003B69D31A022B01D903239BE12D4B1B6848
:10176C0003F00203002BF0D02A4B1B6823F0F80285
:10177C007B685B69DB00274913430B6015E0264B44
:10178C0000221A60FFF736FC386108E0FFF732FCE4
:10179C0002463B69D31A022B01D903237AE11D4B74
:1017AC001B6803F00203002BF0D17B681B6803F06D
:1017BC000803002B3AD07B689B69002B19D0174B80
:1017CC0001221A60FFF716FC386108E0FFF712FCE3
:1017DC0002463B69D31A022B01D903235AE10D4B64
:1017EC005B6A03F00203002BF0D0012000F0A6FA94
:1017FC001CE00A4B00221A60FFF7FCFB38610FE07B
:10180C00FFF7F8FB02463B69D31A022B08D90323D6
:10181C0040E100BF001002400000424280044242FE
:10182C009E4B5B6A03F00203002BE9D17B681B68BB
:10183C0003F00403002B00F0A6800023FB75974BEC
:10184C00DB6903F08053002B0DD1944BDB69934A79
:10185C0043F08053D361914BDB6903F08053BB6041
:10186C00BB680123FB758E4B1B6803F48073002B44
:10187C0018D18B4B1B688A4A43F480731360FFF7B3
:10188C00B9FB386108E0FFF7B5FB02463B69D31A98
:10189C00642B01D90323FDE0814B1B6803F4807397
:1018AC00002BF0D07B68DB68012B06D17B4B1B6ACD
:1018BC007A4A43F0010313622DE07B68DB68002B4E
:1018CC000CD1764B1B6A754A23F001031362734BE0
:1018DC001B6A724A23F0040313621CE07B68DB680A
:1018EC00052B0CD16D4B1B6A6C4A43F0040313623D
:1018FC006A4B1B6A694A43F0010313620BE0674BA6
:10190C001B6A664A23F001031362644B1B6A634A29
:10191C0023F0040313627B68DB68002B15D0FFF700
:10192C0069FB38610AE0FFF765FB02463B69D31A95
:10193C0041F28832934201D90323ABE0574B1B6A27
:10194C0003F00203002BEED014E0FFF753FB3861D9
:10195C000AE0FFF74FFB02463B69D31A41F288328B
:10196C00934201D9032395E04C4B1B6A03F002030D
:10197C00002BEED1FB7D012B05D1484BDB69474A8F
:10198C0023F08053D3617B68DB69002B00F08180EE
:10199C00424B5B6803F00C03082B61D07B68DB695E
:1019AC00022B46D13F4B00221A60FFF723FB386114
:1019BC0008E0FFF71FFB02463B69D31A022B01D943
:1019CC00032367E0354B1B6803F00073002BF0D149
:1019DC007B681B6AB3F5803F08D1304B5B6823F4FE
:1019EC0000327B689B682D4913434B602B4B5B6823
:1019FC0023F474127B68196A7B685B6A0B43274972
:101A0C0013434B60274B01221A60FFF7F3FA38613E
:101A1C0008E0FFF7EFFA02463B69D31A022B01D913
:101A2C00032337E01D4B1B6803F00073002BF0D031
:101A3C002FE01C4B00221A60FFF7DCFA386108E03B
:101A4C00FFF7D8FA02463B69D31A022B01D90323BC
:101A5C0020E0124B1B6803F00073002BF0D118E050
:101A6C007B68DB69012B01D1012313E00B4B5B6815
:101A7C00FB60FB6803F480327B681B6A9A4206D1D8
:101A8C00FB6803F470127B685B6A9A4201D00123F5
:101A9C0000E0002318461837BD4680BD00100240F8
:101AAC00007000406000424280B584B000AF7860A6
:101ABC0039607B68002B01D10123D0E06A4B1B6895
:101ACC0003F007033A689A4210D9674B1B6823F05E
:101ADC00070265493B6813430B60634B1B6803F0BB
:101AEC0007033A689A4201D00123B8E07B681B686F
:101AFC0003F00203002B20D07B681B6803F0040367
:101B0C00002B05D0594B5B68584A43F4E063536093
:101B1C007B681B6803F00803002B05D0534B5B68F4
:101B2C00524A43F460535360504B5B6823F0F0020D
:101B3C007B689B684D4913434B607B681B6803F0C3
:101B4C000103002B40D07B685B68012B07D1474B0E
:101B5C001B6803F40033002B15D101237FE07B6855
:101B6C005B68022B07D1414B1B6803F00073002B01
:101B7C0009D1012373E03D4B1B6803F00203002BDA
:101B8C0001D101236BE0394B5B6823F003027B68C6
:101B9C005B68364913434B60FFF72CFAF8600AE098
:101BAC00FFF728FA0246FB68D31A41F288329342B7
:101BBC0001D9032353E02D4B5B6803F00C027B68C7
:101BCC005B689B009A42EBD1274B1B6803F0070321
:101BDC003A689A4210D2244B1B6823F00702224920
:101BEC003B6813430B60204B1B6803F007033A68F8
:101BFC009A4201D0012332E07B681B6803F0040396
:101C0C00002B08D0194B5B6823F4E0627B68DB681F
:101C1C00164913434B607B681B6803F00803002BC9
:101C2C0009D0124B5B6823F460527B681B69DB00A4
:101C3C000E4913434B6000F021F802460B4B5B68D6
:101C4C001B0903F00F030A49CB5C22FA03F3094A80
:101C5C001360094B1B681846FFF78AF900231846D6
:101C6C001037BD4680BD00BF00200240001002406E
:101C7C00CC250008540000205800002090B48AB0F5
:101C8C0000AF2A4B3C1D0FCB84E80F0040F2012320
:101C9C003B800023FB610023BB6100237B6200239C
:101CAC007B6100233B62224B5B68FB61FB6903F0A9
:101CBC000C03042B02D0082B03D02DE01D4B3B62F0
:101CCC002DE0FB699B0C03F00F0307F12802134472
:101CDC0013F8243C7B61FB6903F48033002B13D095
:101CEC00134B5B685B0C03F0010307F128021344F0
:101CFC0013F8283CBB617B690E4A02FB03F2BB69FB
:101D0C00B2FBF3F37B6204E07B690B4A02FB03F347
:101D1C007B627B6A3B6202E0064B3B6200BF3B6A24
:101D2C0018462837BD4690BC704700BFBC2500083C
:101D3C000010024000127A0000093D0080B485B00A
:101D4C0000AF78600A4B1B680A4AA2FB03235B0AAC
:101D5C007A6802FB03F3FB6000BFFB685A1EFA6053
:101D6C00002BF9D100BF00BF1437BD4680BC7047B3
:101D7C0054000020D34D621080B582B000AF786063
:101D8C007B68002B01D1012341E07B6893F83D3047
:101D9C00DBB2002B06D17B68002283F83C207868EC
:101DAC00FFF74EF87B68022283F83D207B681A68A7
:101DBC007B6804331946104600F06AFA7B680122EE
:101DCC0083F846207B68012283F83E207B68012241
:101DDC0083F83F207B68012283F840207B68012236
:101DEC0083F841207B68012283F842207B68012222
:101DFC0083F843207B68012283F844207B6801220E
:101E0C0083F845207B68012283F83D200023184687
:101E1C000837BD4680BD000080B485B000AF786047
:101E2C007B6893F83D30DBB2012B01D0012335E008
:101E3C007B68022283F83D207B681B68DA687B682C
:101E4C001B6842F00102DA607B681B68164A9342F9
:101E5C0009D07B681B68B3F1804F04D07B681B688A
:101E6C00124A934211D17B681B689B6803F00703ED
:101E7C00FB60FB68062B10D07B681B681A687B68BC
:101E8C001B6842F001021A6007E07B681B681A6845
:101E9C007B681B6842F001021A6000231846143755
:101EAC00BD4680BC704700BF002C014000040040C0
:101EBC0080B582B000AF78607B681B681B6903F04B
:101ECC000203022B22D17B681B68DB6803F0020340
:101EDC00022B1BD17B681B686FF002021A617B68B6
:101EEC0001221A777B681B689B6903F00303002BA4
:101EFC0003D0786800F0B1F905E0786800F0A4F937
:101F0C00786800F0B3F97B6800221A777B681B684D
:101F1C001B6903F00403042B22D17B681B68DB686C
:101F2C0003F00403042B1BD17B681B686FF00402C5
:101F3C001A617B6802221A777B681B689B6903F421
:101F4C004073002B03D0786800F087F905E07868BF
:101F5C0000F07AF9786800F089F97B6800221A772A
:101F6C007B681B681B6903F00803082B22D17B6874
:101F7C001B68DB6803F00803082B1BD17B681B680C
:101F8C006FF008021A617B6804221A777B681B6861
:101F9C00DB6903F00303002B03D0786800F05DF9D4
:101FAC0005E0786800F050F9786800F05FF97B681C
:101FBC0000221A777B681B681B6903F01003102B37
:101FCC0022D17B681B68DB6803F01003102B1BD13C
:101FDC007B681B686FF010021A617B6808221A7705
:101FEC007B681B68DB6903F44073002B03D07868B3
:101FFC0000F033F905E0786800F026F9786800F015
:10200C0035F97B6800221A777B681B681B6903F023
:10201C000103012B0ED17B681B68DB6803F0010305
:10202C00012B07D17B681B686FF001021A6178687D
:10203C00FEF756FE7B681B681B6903F08003802B40
:10204C000ED17B681B68DB6803F08003802B07D103
:10205C007B681B686FF080021A61786800F067FA81
:10206C007B681B681B6903F04003402B0ED17B6817
:10207C001B68DB6803F04003402B07D17B681B68AF
:10208C006FF040021A61786800F0F9F87B681B6801
:10209C001B6903F02003202B0ED17B681B68DB68C7
:1020AC0003F02003202B07D17B681B686FF0200204
:1020BC001A61786800F032FA00BF0837BD4680BD5F
:1020CC0080B584B000AF786039607B6893F83C30A1
:1020DC00012B01D10223B3E07B68012283F83C2061
:1020EC007B68022283F83D207B681B689B68FB6041
:1020FC00FB6823F07703FB60FB6823F47F43FB60F2
:10210C007B681B68FA689A603B681B68B3F5005FD4
:10211C003ED0B3F5005F00F28780B3F5805F00F02E
:10212C008580B3F5805F7FD8702B1AD0702B7BD84D
:10213C00602B50D0602B77D8502B3CD0502B73D8C1
:10214C00402B58D0402B6FD8302B64D0302B6BD811
:10215C00202B60D0202B67D8002B5CD0102B5AD0B2
:10216C0062E07B6818683B6899683B685A683B6812
:10217C00DB6800F05CF97B681B689B68FB60FB68A4
:10218C0043F07703FB607B681B68FA689A604EE04B
:10219C007B6818683B6899683B685A683B68DB68E1
:1021AC0000F045F97B681B689A687B681B6842F4F1
:1021BC0080429A603BE07B6818683B6859683B68D2
:1021CC00DB681A4600F0BCF87B681B685021184687
:1021DC0000F013F92BE07B6818683B6859683B6882
:1021EC00DB681A4600F0DAF87B681B686021184639
:1021FC0000F003F91BE07B6818683B6859683B6882
:10220C00DB681A4600F09CF87B681B684021184676
:10221C0000F0F3F80BE07B681A683B681B68194602
:10222C00104600F0EAF802E000BF00E000BF7B6857
:10223C00012283F83D207B68002283F83C20002398
:10224C0018461037BD4680BD80B483B000AF7860AF
:10225C0000BF0C37BD4680BC704780B483B000AF64
:10226C00786000BF0C37BD4680BC704780B483B02B
:10227C0000AF786000BF0C37BD4680BC704780B49F
:10228C0083B000AF786000BF0C37BD4680BC704790
:10229C0080B485B000AF786039607B681B68FB60E8
:1022AC007B68254A934207D07B68B3F1804F03D0FB
:1022BC007B68224A934208D1FB6823F07003FB60D1
:1022CC003B685B68FA681343FB607B681A4A93426D
:1022DC0007D07B68B3F1804F03D07B68174A9342D9
:1022EC0008D1FB6823F44073FB603B68DB68FA6839
:1022FC001343FB60FB6823F080023B685B6913436C
:10230C00FB607B68FA681A603B689A687B68DA62E3
:10231C003B681A687B689A627B68074A934203D1D0
:10232C003B681A697B681A637B6801225A6100BF9B
:10233C001437BD4680BC7047002C0140000400409F
:10234C0080B487B000AFF860B9607A60FB681B6A34
:10235C007B61FB681B6A23F00102FB681A62FB6855
:10236C009B693B613B6923F0F0033B617B681B017C
:10237C003A6913433B617B6923F00A037B617A69F9
:10238C00BB6813437B61FB683A699A61FB687A69A5
:10239C001A6200BF1C37BD4680BC704780B487B042
:1023AC0000AFF860B9607A60FB681B6A23F010021A
:1023BC00FB681A62FB689B697B61FB681B6A3B616B
:1023CC007B6923F470437B617B681B037A6913433D
:1023DC007B613B6923F0A0033B61BB681B013A693D
:1023EC0013433B61FB687A699A61FB683A691A622C
:1023FC0000BF1C37BD4680BC704780B485B000AFB1
:10240C00786039607B689B68FB60FB6823F0700325
:10241C00FB603A68FB68134343F00703FB607B687F
:10242C00FA689A6000BF1437BD4680BC704780B410
:10243C0087B000AFF860B9607A603B60FB689B685E
:10244C007B617B6923F47F437B613B681A027B6869
:10245C001A43BB6813437A6913437B61FB687A693F
:10246C009A6000BF1C37BD4680BC704780B485B0F5
:10247C0000AF786039607B6893F83C30012B01D158
:10248C00022341E07B68012283F83C207B68022216
:10249C0083F83D207B681B685B68FB607B681B686E
:1024AC009B68BB60FB6823F07003FB603B681B6898
:1024BC00FA681343FB607B681B68FA685A607B6898
:1024CC001B68144A934209D07B681B68B3F1804F98
:1024DC0004D07B681B68104A93420CD1BB6823F074
:1024EC008003BB603B685B68BA681343BB607B6866
:1024FC001B68BA689A607B68012283F83D207B6870
:10250C00002283F83C20002318461437BD4680BCBB
:10251C00704700BF002C01400004004080B483B021
:10252C0000AF786000BF0C37BD4680BC704780B4EC
:10253C0083B000AF786000BF0C37BD4680BC7047DD
:10254C0070B500260C4D0D4C641BA410A64209D18D
:10255C0000F022F800260A4D0A4C641BA410A64277
:10256C0005D170BD55F8043B98470136EEE755F898
:10257C00043B98470136F2E7DC250008DC2500080F
:10258C00DC250008E025000803460244934200D1F4
:10259C00704703F8011BF9E7F8B500BFF8BC08BC9D
:1025AC009E467047F8B500BFF8BC08BC9E46704705
:1025BC0002030405060708090A0B0C0D0E0F101078
:1025CC0000000000000000000102030406070809D7
:0425DC0031010008C1
:0425E0000D010008E1
:1025E40001000000010000000100000001000000E3
:1025F40001000000010000000100000001000000D3
:1026040001000000010000000100000001000000C2
:1026140001000000010000000100000001000000B2
:102624006400000064000000640000006400000016
:10263400020408000024F40010000000010000005F
:0400000508000F05DB
:00000001FF
